:020000040800F2
:10000000C00B00209901000871250008512000084C
:100010006D25000807060008052B000800000000F9
:100020000000000000000000000000006D27000834
:100030003106000800000000412600086F27000874
:10004000B3010008B3010008B3010008B3010008C0
:10005000B3010008B3010008B3010008B3010008B0
:10006000B3010008B3010008B3010008B3010008A0
:10007000B3010008B3010008B3010008B301000890
:10008000B3010008B3010008B3010008B301000880
:10009000B3010008B3010008B3010008B301000870
:1000A000B3010008B3010008B3010008B301000860
:1000B000B3010008B3010008B3010008B301000850
:1000C000B3010008B3010008B3010008B301000840
:1000D000B3010008F52A0008B3010008B3010008C5
:1000E000B3010008B3010008B301000800F002F8F2
:1000F00000F042F80AA090E8000C82448344AAF180
:100100000107DA4501D100F037F8AFF2090EBAE87D
:100110000F0013F0010F18BFFB1A43F0010318473B
:10012000887C0000A87C0000103A24BF78C878C101
:10013000FAD8520724BF30C830C144BF04680C60ED
:10014000704700000023002400250026103A28BF35
:1001500078C1FBD8520728BF30C148BF0B60704739
:10016000642900F0D980732900F00F8200207047C5
:100170001FB51FBD10B510BD00F00BFA1146FFF7FB
:10018000F7FF03F065F900F029FA03B4FFF7F2FF77
:1001900003BC00F031FA00000948804709480047D5
:1001A000FEE7FEE7FEE7FEE7FEE7FEE7FEE7FEE727
:1001B000FEE7FEE704480549054A064B7047000084
:1001C000DD270008ED000008C0050020C00B00205E
:1001D000C0070020C0070020B2F120030AD5C2F1F9
:1001E000200320FA02F001FA03F321FA02F140EAB7
:1001F0000300704721FA03F04FF000017047000040
:100200000FB41CB5074B06AA7B44694600900598BD
:1002100000F089F90020694600F098F91CBC5DF8EF
:1002200014FB0000410300000FB41CB50C0007AA2A
:10023000009001D02044401E074B7B44694601904A
:10024000069800F070F9002C03D06946002000F0F9
:100250007DF91CBC5DF814FB190300002DE9F04189
:100260000E460446002020622046E168884730B3ED
:10027000252805D0D4E901219047206A401CF2E7E7
:10028000E168204600278847050018D0A5F1410005
:10029000192802D820354FF40067324629462046F7
:1002A0002760FFF75DFF40B1012804D0F61D26F05E
:1002B00007060836D8E7361DD6E72846DAE7206A6B
:1002C000BDE8F08170B50C460546012A05D02878B6
:1002D000800600D5EA69002302E0012305E05B1CEB
:1002E000934202D2E05C0028F9D1A869E618C01A4E
:1002F000A861286A184428622846AFF3008004E009
:10030000D5E9012114F8010B9047B442F8D32846EF
:10031000AFF3008070BD00002DE9F04106460024D7
:1003200010687529314616A510D0AFF3008000285B
:1003300002DA404213A507E031688A0701D512A509
:1003400002E0490704D511A5012401E0AFF30080C4
:1003500000210A2206F1240709E0B0FBF2FCB0FB01
:10036000F2F302FB1C00303078541846491C002878
:10037000F3D123462A463046BDE8F04100F075B877
:10038000000000002D0000002B00000020000000F5
:1003900040EA0103024630B59B0710D14FF001340B
:1003A00000E008C208C91D1B9D4315EAC41FF8D010
:1003B00013F0FF0102F8011B0DD01B0AF8E711F83A
:1003C000013B002B02F8013B05D011F8013B002B4B
:1003D00002F8013BF3D130BD10B5431C02E010F828
:1003E000011B71B18107FAD14FF0013202C88C1A9A
:1003F0008C4314EAC211F9D0C01A0A0603D0C01EF9
:1004000010BDC01A10BD0A0401D0801E10BD090223
:10041000FCD0401E10BD4FF0000200B513469446BC
:100420009646203922BFA0E80C50A0E80C50B1F14C
:100430002001BFF4F7AF090728BFA0E80C5048BF60
:100440000CC05DF804EB890028BF40F8042B08BFFE
:10045000704748BF20F8022B11F0804F18BF00F8FA
:10046000012B70477047704770472DE9F0470D46E4
:1004700099469246044600F124080168880604D58E
:10048000E06921F01001216000E00120A84201DDB7
:10049000471B00E00027A1697A1902EB0900081A3E
:1004A000A0612078C00602D42046AFF30080002669
:1004B00008E0D4E901211AF806009047206A401CA0
:1004C000761C20624E45F4DB2078C0060AD5204613
:1004D000AFF3008006E0D4E9012130209047206A84
:1004E000401C2062381EA7F10107F4DC07E0D4E9C4
:1004F000012118F805009047206A401C2062281E40
:10050000A5F10105F3DC2046AFF30080207800065A
:1005100002D50220BDE8F0870120FBE701694A1CF3
:1005200002610878704700B58FB0CDE90131002134
:10053000059105497944CDE9031011466846FFF756
:100540008DFE0FB000BD0000E5FFFFFF0A6802F856
:10055000010B0A607047D1E900239A4202D2531C72
:100560000B601070704710B5436913B1AFF3008092
:1005700001E0FFF7A7FE012010BD127800F1240171
:100580000A7000224A700122EDE711684FF0FF3235
:10059000E9E7754600F02CF8AE460500694653467B
:1005A00020F00700854618B020B5FFF703FEBDE830
:1005B00020404FF000064FF000074FF000084FF0CA
:1005C000000B21F00701AC46ACE8C009ACE8C0095B
:1005D000ACE8C009ACE8C0098D46704710B50446C8
:1005E000AFF300802046BDE81040FFF7CEBD00000D
:1005F000004870475C05002001491820ABBEFEE7AB
:1006000026000200704700BFFEE7000006480068B1
:1006100040F08070044908600448006840F0010020
:100620000249086070470000FCED00E0001000E0A7
:10063000704772B600BFFEE70146002291F8210024
:10064000022808D00420886300BF002081F8200021
:1006500000BF012070470868006820F00E000B689A
:1006600018600868006820F001000B68186091F8B5
:10067000403001209840CB6B5860012081F8210068
:1006800000BF002081F8200000BF1046E2E7000014
:1006900070B50446002594F82100022803D00420F8
:1006A000A063012548E02068006820F00E00216862
:1006B00008602068006820F00100216808601F4978
:1006C0002068884201D1012026E01C4914312068AD
:1006D000884201D110201FE0184928312068884243
:1006E00001D1801518E015493C312068884201D1BC
:1006F000801411E0114950312068884202D14FF432
:10070000803009E00D4964312068884202D14FF4FD
:10071000801001E04FF080700849083948600120DE
:1007200084F8210000BF002084F8200000BF606B27
:1007300010B12046616B8847284670BD0800024012
:1007400070B5044600F0AEF906462546681C10B1A7
:1007500004480078054400BF00F0A4F9801BA842BB
:10076000FAD370BD640000202DE9F847034600224B
:1007700094466EE14FF0010808FA02F4D1F80080C7
:1007800008EA0400A0427DD1DFF8DCA2D1F80480A1
:10079000A8EB0A09D0453AD014DCB8F1030F50D0C9
:1007A00009DCB8F1000F31D0B8F1010F1CD0B8F15D
:1007B000020F49D120E0B8F1110F18D0B8F1120F93
:1007C00042D11EE0B9F5881F25D006DCB9F5803F7F
:1007D00020D0B9F5801F37D11AE0B9F5001F18D025
:1007E000B9F5041F30D117E0D1F80CC02DE0D1F8D5
:1007F0000C8008F1040C28E0D1F80C8008F1080CFA
:1008000023E0D1F80C8008F10C0C1EE000BF00BF03
:1008100000BF00BF00BF00BFD1F80880B8F1000FD3
:1008200002D14FF0040C0BE0D1F80880B8F1010FB1
:1008300003D14FF0080C1C6102E04FF0080C5C6122
:1008400003E04FF0000C00E000BF00BFFF2801D81C
:10085000984601E003F104084646FF2802D84FEA13
:10086000820803E0A2F108084FEA88084746D6F854
:1008700000804FF00F0909FA07F928EA09080CFA75
:1008800007F900E088E048EA0908C6F80080D1F8D6
:10089000048008F08058B8F1805F7DD100BFDFF898
:1008A000CC81D8F8188048F00108DFF8C091C9F869
:1008B0001880C846D8F8188008F00108CDF80080E4
:1008C00000BF00BF4FEAB9384FEA920958F82950E3
:1008D0004FEA82784FEA18794FF00F0808FA09F8C2
:1008E00025EA0805DFF88881434502D14FF000086A
:1008F00016E0DFF88081434502D14FF001080FE098
:10090000DFF87481434502D14FF0020808E0DFF8B8
:100910006C81434502D14FF0030801E04FF0040819
:100920004FEA82794FEA197908FA09F848EA050589
:10093000DFF84C814FEA920948F82950D1F8048039
:1009400008F48038B8F5803F0AD1DFF83881D8F84C
:10095000008048EA0008DFF82C91C9F8008009E01F
:10096000DFF82081D8F8008028EA0008DFF8149129
:10097000C9F80080D1F8048008F40038B8F5003FC9
:1009800010D1DFF8008108F10408D8F8008048EAA7
:100990000008DFF8F09000E05AE009F10409C9F816
:1009A00000800DE0DFF8DC8008F10408D8F8008052
:1009B00028EA0008DFF8CC9009F10409C9F80080A2
:1009C000D1F8048008F48018B8F5801F0ED1DFF844
:1009D000B48008F10808D8F8008048EA0008DFF879
:1009E000A49009F10809C9F800800DE0DFF89480AF
:1009F00008F10808D8F8008028EA0008DFF8849099
:100A000009F10809C9F80080D1F8048008F4001839
:100A1000B8F5001F0ED1DFF86C8008F10C08D8F88B
:100A2000008048EA0008DFF85C9009F10C09C9F879
:100A300000800DE0DFF84C8008F10C08D8F8008049
:100A400028EA0008DFF83C9009F10C09C9F8008099
:100A5000521CD1F8008028FA02F8B8F1000F7FF498
:100A600089AEBDE8F88700000000111000100240B8
:100A700000080140000C014000100140001401403A
:100A80000800014000040140024693680B400BB18E
:100A9000012000E0002070470AB1016101E00B0471
:100AA0000361704701480068704700005C00002047
:100AB00070B504460CB9012070BD94F83D0028B90A
:100AC000002084F83C00204600F08CF9242084F8B3
:100AD0003D002068006820F001002168086020685F
:100AE000006840F40040216808602068006820F435
:100AF00000402168086000F04DFB05465C496068D5
:100B0000884206D85B48854201D2012007E00020D8
:100B100005E05948854201D2012000E0002001286B
:100B200000D1C9E75548B5FBF0F62068406820F0D1
:100B30003F003043216848604D496068884201D8D1
:100B4000701C07E04FF4967070434FF47A71B0FB5D
:100B5000F1F0401C2168096A21F03F010843216837
:100B6000086243496068884214D8681E6168490079
:100B7000B0FBF1F0401CC0F30B00042801D20420AC
:100B80003DE0681E61684900B0FBF1F0401CC0F315
:100B90000B0034E0A06838B9681E616801EB4101C0
:100BA000B0FBF1F0401C0AE0681E616801EBC10275
:100BB00002EB0111B0FBF1F0401C40F48040C0F3A7
:100BC0000B0008B901201AE0A06848B9681E6168E6
:100BD00001EB4101B0FBF1F0401CC0F30B000CE055
:100BE000681E616801EBC10202EB0111B0FBF1F07C
:100BF000401CC0F30B0040F4804040F400402168EA
:100C0000C9694CF6FF72914308432168C861D4E971
:100C1000070108432168096821F0C00108432168E1
:100C20000860D4E9031008432168896848F2FF325C
:100C30009143084321688860D4E90501084321688D
:100C4000C96821F0FF0108432168C8602068006876
:100C500040F001002168086000202064202084F812
:100C60003D000020206384F83E0000BF24E7000020
:100C7000A086010080841E0000093D0040420F0054
:100C80002DE9FC5F04460F4690469946DDE90CAB22
:100C90000E9EFFF707FF054694F83D0020287DD102
:100CA000192301224D492046009501F0A3FA10B105
:100CB0000220BDE8FC9F00BF94F83C00012801D150
:100CC0000220F6E7012084F83C0000BF206800689D
:100CD00000F0010028B92068006840F00100216898
:100CE00008602068006820F4006021680860212006
:100CF00084F83D00402084F83E0000202064C4F8C1
:100D000024A0A4F82AB0608D20853548E0624B46C7
:100D1000424639462046CDE9006501F0CDF908B1DB
:100D20000120C6E731E02A463146204601F007FBA4
:100D300050B1206C042805D12068006840F4007090
:100D4000216808600120B4E7606A007821680861C2
:100D5000606A401C6062208D401E2085608D401EB0
:100D6000608520684069C0F3800070B1208D60B15B
:100D7000606A007821680861606A401C6062208DAA
:100D8000401E2085608D401E6085208D0028CAD1C0
:100D90002A463146204601F0FFF900E01CE050B140
:100DA000206C042805D12068006840F40070216898
:100DB000086001207DE72068006840F40070216829
:100DC0000860202084F83D00002084F83E0000BF29
:100DD00084F83C0000BF6CE702206AE702001000C4
:100DE0000000FFFF10B586B004460020029003907B
:100DF0000490059015492068884225D100BF144809
:100E0000806940F00800124988610846806900F056
:100E10000800019000BF00BFC02002901220039084
:100E20000320059002A90B48FFF79EFC00BF08486D
:100E3000C06940F400100649C8610846C06900F462
:100E40000010019000BF00BF06B010BD005400406C
:100E500000100240000C0140034800680349097873
:100E600008440149086070475C00002064000020CD
:100E700010B50848006840F01000064908600320DB
:100E800000F0A8F80F2000F007F800F02BF8002081
:100E900010BD00000020024070B504460E480078E6
:100EA0004FF47A71B1FBF0F00C490968B1FBF0F531
:100EB000284600F099FE08B1012070BD102C07D221
:100EC00000222146501E00F047F80548046001E06A
:100ED0000120F2E70020F0E7640000206800002015
:100EE0006000002008B500BF1148806940F0010093
:100EF0000F4988610846806900F00100009000BF3A
:100F000000BF00BF0846C06940F08050C861084675
:100F1000C06900F08050009000BF00BF00BF0549CD
:100F2000486820F0E06040F08070486000BF08BD75
:100F3000001002400000014001460846002809DB7D
:100F400000F01F0301229A4043099B0003F1E023B4
:100F5000C3F8002100BF70472DE9F05F80460D46C1
:100F60001646002701F0D0FD074639462A4633468B
:100F700001F00700C0F1070ABAF1040F02D94FF0DF
:100F8000040A01E0C0F1070AD14600F1040ABAF1EF
:100F9000070F02D24FF0000A01E0A0F1030AD44685
:100FA0004FF0010A0AFA09FAAAF1010A0AEA020A4A
:100FB0000AFA0CFA4FF0010B0BFA0CFBABF1010B28
:100FC0000BEA030B4AEA0B042146404601F0A4FD5C
:100FD000BDE8F09F00BF00F00702064B19684FF60E
:100FE000FF031940044B0B4343EA0221014B1960F4
:100FF00000BF70470CED00E00000FA0570B5044634
:101000000D460CB9012070BD5A48006800F0070079
:10101000A8420ED25748006820F0070028435549DF
:1010200008600846006800F00700A84201D00120CF
:10103000E9E7207800F0020002281DD1207800F0B6
:101040000400042805D14C48406840F4E0604A4957
:101050004860207800F00800082805D1464840681C
:1010600040F46050444948604348406820F0F00034
:10107000A168084340494860207800F0010078B337
:101080006068012806D13C48006800F4003090B93F
:101090000120B8E76068022806D13748006800F0F0
:1010A000007040B90120AEE73348006800F002004C
:1010B00008B90120A7E73048406820F003006168C4
:1010C00008432D494860FFF7EDFC064609E0FFF7AD
:1010D000E9FC801B41F28831884202D9032092E763
:1010E00007E02548406800F00C006168B0EB810F14
:1010F000EDD12048006800F00700A8420ED91D4835
:10110000006820F0070028431A4908600846006874
:1011100000F00700A84201D0012074E7207800F019
:101120000400042807D11448406820F4E060E16816
:10113000084311494860207800F00800082808D1C9
:101140000D48406820F46050216940EAC1000A4916
:10115000486000F03FF808494968C1F30311074AA5
:10116000515CC8400649086006480068FFF794FED5
:10117000002048E700200240001002408E7D000859
:1011800068000020600000200148006870470000EF
:101190006800002000B5FFF7F7FF04494968C1F374
:1011A0000221034A515CC84000BD0000001002400B
:1011B0009E7D000800B5FFF7E7FF04494968C1F3C9
:1011C000C221034A515CC84000BD0000001002402B
:1011D0009E7D0008F0B585B00FF26C0C9CE8E01025
:1011E00001A8A0E8E0101CA52D68009500210022B0
:1011F000002300240020194D696801F00C05F5B1A9
:10120000042D02D0082D19D101E0154819E001ADD7
:10121000C1F38346AC5D01F4803555B10F4D6D6867
:10122000C5F340451DF805200D4D6543B5FBF2F3B0
:1012300002E00C4D04FB05F3184602E000BF08482D
:1012400000BF00BF05B0F0BD020304050607080992
:101250000A0B0C0D0E0F10100102000000100240CE
:1012600000127A0000093D00F8B504460CB90120CF
:10127000F8BD207800F00100002878D0F8484068D8
:1012800000F00C0004280CD0F548406800F00C0079
:10129000082811D1F248406800F48030B0F5803F52
:1012A0000AD1EF48006800F4003000285FD0606881
:1012B00000285CD10120DBE700BF6068B0F5803F0B
:1012C00006D1E748006840F48030E549086028E02E
:1012D000606858B9E248006820F48030E04908604E
:1012E0000846006820F4802008601AE06068B0F5C5
:1012F000A02F0BD1DA48006840F48020D84908605C
:101300000846006840F4803008600AE0D44800686D
:1013100020F48030D24908600846006820F480201C
:10132000086000BF606888B1FFF7BCFB054606E0B7
:10133000FFF7B8FB401B642801D9032098E7C84891
:10134000006800F400300028F2D010E0FFF7AAFB9C
:10135000054606E0FFF7A6FB401B642801D90320E1
:1013600086E7BF48006800F400300028F2D12078FA
:1013700000F00200022857D1B948406800F00C0084
:1013800050B1B748406800F00C00082818D1B448A4
:10139000406800F4803098B9B148006800F002005D
:1013A00020B12069012801D0012061E7AC48006824
:1013B00020F0F800616940EAC100A949086033E003
:1013C0002069E8B10120A7490860FFF76BFB0546DB
:1013D00006E0FFF767FB401B022801D9032047E71F
:1013E0009F48006800F002000028F2D09C48006886
:1013F00020F0F800616940EAC1009949086013E0F3
:10140000002098490860FFF74DFB054606E0FFF70E
:1014100049FB401B022801D9032029E790480068B6
:1014200000F002000028F2D1207800F0080008281F
:101430002DD1A069B8B101208B490860FFF732FBBC
:10144000054606E0FFF72EFB401B022801D90320CA
:101450000EE78348406A00F002000028F2D0012025
:1014600001F0F0F813E000207F490860FFF71AFB55
:10147000054606E0FFF716FB401B022801D90320B2
:10148000F6E67748406A00F002000028F2D12078A2
:1014900000F00400042873D100277148C06900F0EF
:1014A000805070B900BF6E48C06940F080506C49F0
:1014B000C8610846C06900F08050009000BF00BFBE
:1014C00001276A48006800F48070B0B96748006876
:1014D00040F4807065490860FFF7E4FA054606E0CD
:1014E000FFF7E0FA401B642801D90320C0E65F48FB
:1014F000006800F480700028F2D000BFE068012886
:1015000006D15748006A40F001005549086227E0BB
:10151000E06858B95248006A20F00100504908625A
:101520000846006A20F00400086219E0E068052817
:101530000BD14B48006A40F0040049490862084654
:10154000006A40F0010008620AE04548006A20F0A5
:101550000100434908620846006A20F0040008625E
:1015600000BFE068A0B1FFF79DFA054609E0FFF76C
:1015700099FA401B41F28831884202D9032077E66C
:1015800022E03748006A00F002000028EFD012E0A5
:10159000FFF788FA054608E0FFF784FA401B41F29E
:1015A0008831884201D9032062E62D48006A00F0A4
:1015B00002000028F0D1012F05D12948C06920F090
:1015C00080502749C86100BFE069C8B3244840681B
:1015D00000F00C00082860D0E069022848D1002003
:1015E00020490866FFF75EFA054606E0FFF75AFA5B
:1015F000401B022801D903203AE61948006800F090
:1016000000700028F2D1206AB0F5803F07D114485D
:10161000406820F40030A168084311494860D4E9CB
:10162000080108430E49496821F4741108430C4924
:10163000486001200B490866FFF734FA054607E0C9
:101640003DE0FFF72FFA401B022801D903200FE6E7
:101650000348006800F000700028F2D02FE000007E
:1016600000100240000042428004424200700040EC
:10167000002014490866FFF715FA054606E0FFF753
:1016800011FA401B022801D90320F1E50E48006839
:1016900000F000700028F2D111E0E069012800D1CB
:1016A000E6E50948466806F48031206A814204D1A3
:1016B00006F47011606A814201D00120D8E5002053
:1016C000D6E50000000042420010024010B504467A
:1016D0000CB9012010BD606A38B96068B0F5827F2E
:1016E00000D105E00021E16102E00021216161619A
:1016F0000021A16294F8510028B9002084F850001C
:10170000204600F043F8022084F851002068006869
:1017100020F0400021680860A08800F482702189D0
:1017200001F404410843A18901F400610843217CCC
:1017300001F002010843217D01F001010843218BE2
:1017400001F400710843217F01F038010843202192
:10175000095D01F080010843218D01F40051084327
:10176000216808600421A06901EA104021684860EE
:101770002068C06920F400602168C86100206065AD
:10178000012084F851000020A4E7000010B586B0C5
:1017900004460020029003900490059019492068A7
:1017A00088422DD100BF1848806940F48050164906
:1017B00088610846806900F48050019000BF00BF36
:1017C00000BF0846806940F00400886108468069CF
:1017D00000F00400019000BF00BFA0200290022092
:1017E00003900320059002A90848FEF7BDFF4020A2
:1017F000029000200390049002A90448FEF7B4FF71
:1018000006B010BD00300140001002400008014049
:101810002DE9F84F0446884616461D464FF0000A4B
:1018200000BF94F85000012802D10220BDE8F88FD3
:10183000012084F8500000BFFFF734F90746B14695
:1018400094F85100012802D04FF0020AADE0B8F13F
:10185000000F00D016B94FF0010AA6E0032084F86B
:10186000510000206065C4F83080A686E686A0633B
:10187000A087E08760642064A068B0F5004F0BD1BA
:101880002068006820F04000216808602068006837
:1018900040F48040216808602068006800F0400043
:1018A000402805D02068006840F0400021680860AA
:1018B000E068B0F5006F2FD1606810B1B9F1010F89
:1018C00009D1206B00882168C860206B801C2063D0
:1018D000E08E401EE0861BE02068806800F0020079
:1018E00002280AD1206B00882168C860206B801C08
:1018F0002063E08E401EE0860AE0FFF7D3F8C01BAD
:10190000A84201D3681C00B915B94FF0030A4CE096
:10191000E08E0028E0D12EE0606810B1B9F1010F2F
:1019200009D1206B007821680873206B401C20636C
:10193000E08E401EE0861BE02068806800F0020018
:1019400002280AD1206B007821680873206B401CA4
:101950002063E08E401EE0860AE0FFF7A3F8C01B7C
:10196000A84201D3681C00B915B94FF0030A1CE066
:10197000E08E0028E0D13A462946204600F076FE67
:1019800008B120206065A06850B900BF0020009019
:101990002068C068009020688068009000BF00BF89
:1019A000606D08B14FF0010A00BF012084F85100BA
:1019B00000BF002084F8500000BF504636E72DE9F4
:1019C000FF5F0446884691461D460E9E0120029008
:1019D0000020019000BF94F85000012803D102209C
:1019E00004B0BDE8F09F012084F8500000BFFFF76D
:1019F00059F8074694F851B060680390AA46BBF1C5
:101A0000010F0BD00398B0F5827F04D1A06810B904
:101A1000BBF1040F02D002200190DBE0B8F1000F0F
:101A200003D0B9F1000F00D015B901200190D1E029
:101A300094F85100042802D0052084F851000020B9
:101A40006065C4F83890E587A587C4F83080E586DE
:101A5000A586206460642068006800F0400040288B
:101A600005D02068006840F0400021680860E06808
:101A7000B0F5006F4AD1606810B1BAF1010F09D119
:101A8000206B00882168C860206B801C2063E08E7A
:101A9000401EE08633E02068806800F002000228E3
:101AA00010D1E08E70B1029801280BD1206B008814
:101AB0002168C860206B801C2063E08E401EE08699
:101AC000002002902068806800F0010068B1E08F7B
:101AD00058B12068C068A16B0880A06B801CA0630F
:101AE000E08F401EE08701200290FEF7DBFFC01B65
:101AF000B04204D3701C10B1032001906AE0E08E64
:101B00000028C8D1E08F0028C5D14AE0606810B134
:101B1000BAF1010F09D1206B007821680873206B9E
:101B2000401C2063E08E401EE08634E02068806820
:101B300000F00200022810D1E08E70B10298012856
:101B40000BD1206B007821680873206B401C206348
:101B5000E08E401EE086002002902068806800F041
:101B6000010068B1E08F58B12068C068A16B0870AF
:101B7000A06B401CA063E08F401EE0870120029014
:101B8000FEF790FFC01BB04201D3701C00B916B91C
:101B9000032001901EE0E08E0028C7D1E08F0028CE
:101BA000C4D13A463146204600F060FD20B1012004
:101BB0000190202060650DE0A06850B900BF0020B2
:101BC00000902068C068009020688068009000BF86
:101BD00000BF00BF012084F8510000BF002084F83E
:101BE000500000BF0198FBE670B504462546681E0C
:101BF000B0F1807F01D301200FE0681E4FF0E0219B
:101C000048610F214FF0FF3000F086FF00204FF0B9
:101C1000E021886107200861002070BD704770478F
:101C20002DE9F84F0446206805682068C6682068DA
:101C300047694FF00009CA4605F00F09B9F1000FD6
:101C40000AD105F0200038B106F0200020B120466E
:101C500000F0FAFDBDE8F88FB9F1000F71D007F080
:101C6000010018B906F4907000286AD005F0010050
:101C700030B106F4807018B1206C40F0010020648F
:101C800005F0040030B107F0010018B1206C40F0FD
:101C90000200206405F0020030B107F0010018B125
:101CA000206C40F00400206405F0080048B106F004
:101CB000200010B907F0010018B1206C40F00800B6
:101CC0002064206C68B305F0200028B106F02000E5
:101CD00010B1204600F0B8FD20684069C0F3801ABA
:101CE000206C00F0080010B9BAF1000F22D0204695
:101CF00000F07FFD2068406900F04000B0B120682E
:101D0000406920F0400021684861A06B50B15648FE
:101D1000A16B4863A06BFEF7BBFC10B1A06B416BDD
:101D200088470CE02046FFF77AFF08E02046FFF7DF
:101D300076FF04E02046FFF772FF0020206489E769
:101D4000FFE7206B012878D105F01000002874D03F
:101D500006F01000002870D000BF0020009020681E
:101D60000068009020684068009000BF00BF2068B5
:101D7000406900F04000C0B3A06B006840681FFAE3
:101D800080F8B8F1000F2FD0A08D40452CDDA4F8CD
:101D90002E80A06B806920281FD02068C06820F4A6
:101DA00080702168C8602068406920F001002168C7
:101DB00048612068406920F0400021684861202087
:101DC00084F83E00002020632068C06820F01000E6
:101DD0002168C860A06BFEF72FFCA08DE28D801AF1
:101DE00081B22046FFF71AFF34E7FFE7A08DE18DAF
:101DF000401A1FFA80F8E08DE8B1B8F1000F1AD050
:101E00002068C06820F490702168C860206840692C
:101E100020F0010021684861202084F83E00002065
:101E200020632068C06820F010002168C860414627
:101E30002046FFF7F3FE0DE7FFE705F0800030B125
:101E400006F0800018B1204600F0EEFD02E705F034
:101E5000400030B106F0400018B1204600F0E4FC2C
:101E6000F8E600BFF6E60000DF27000810B50446DC
:101E70000CB9012010BDA06900B100E000BF94F8CA
:101E80003D0028B9002084F83C00204600F028F8E6
:101E9000242084F83D002068C06820F400502168A8
:101EA000C860204600F042FD2068006920F49040A0
:101EB000216808612068406920F02A002168486193
:101EC0002068C06840F400502168C8600020206489
:101ED000202084F83D0084F83E000020CAE700007E
:101EE00010B586B00446002002900390049005903F
:101EF0001E492068884236D100BF1D48806940F4E1
:101F000080401B4988610846806900F48040019048
:101F100000BF00BF00BF0846806940F00400886130
:101F20000846806900F00400019000BF00BF48151A
:101F30000290022003900320059002A90D48FEF7AD
:101F400013FC4FF48060029000200390049002A9DB
:101F50000848FEF709FC002211462520FEF7FCFF89
:101F60002520FEF7E9FF06B010BD00000038014053
:101F7000001002400008014070472DE9F84F044668
:101F80000E46174699464FF0000A94F83D00202867
:101F90005AD106B117B90120BDE8F88F00BF94F8F7
:101FA0003C00012801D10220F6E7012084F83C0022
:101FB00000BF00202064212084F83D00FEF772FD60
:101FC0008246A784E784A068B0F5805F04D12069C9
:101FD00010B90025B04602E035464FF0000800BFBA
:101FE000002084F83C0000BF1BE053460022802103
:101FF0002046CDF8009000F047FD08B10320CBE764
:1020000045B9B8F80000C0F308002168486008F13D
:10201000020803E02878216848606D1CE08C401EAF
:10202000E084E08C0028E0D1534600224021204685
:10203000CDF8009000F028FD08B10320ACE7202087
:1020400084F83D000020A7E70220A5E770470000C4
:10205000012408E03CB100244FF6FF730B2202A1DB
:102060000448FFF78AFFF5E7486172644661756CC2
:10207000740D0A0018050020014608684069C0F385
:102080008020B0B16FF480600A685061002008635E
:10209000202081F83D00002081F83E00086C40F0CF
:1020A0000400086400BF002081F83C0000BF01204C
:1020B00070470020FCE700002DE9F84304468846FD
:1020C00015469946DDE908672068006840F480708D
:1020D00021680860334600224FF001112046009726
:1020E00000F088F860B12068006800F48070B0F5F6
:1020F000807F02D14FF4007020640320BDE8F88394
:1021000008F0FE00216808613B463246214920461E
:1021100000F0B3F808B10120F0E700BF0020009004
:1021200020684069009020688069009000BF00BF6F
:102130003A463146204600F002F950B1206C04289E
:1021400005D12068006840F4007021680860012013
:10215000D4E7B9F1010F03D1E8B22168086117E0B3
:10216000C5F30720216808613A463146204600F051
:10217000E6F850B1206C042805D12068006840F4CE
:102180000070216808600120B8E7E8B221680861A2
:102190000020B3E70200010070B504460D46164664
:1021A00020E02046FFF768FF08B1012070BD681CE1
:1021B000C0B1FEF777FC801BA84200D895B900207B
:1021C0002063202084F83D00002084F83E00206C2D
:1021D00040F02000206400BF002084F83C0000BFD5
:1021E0000120E3E720684069C0F380000028D8D0D0
:1021F0000020DBE72DE9F04104460D4617461E4658
:10220000DDF818801CE0701CD0B1FEF74BFCA0EB91
:102210000800B04200D89EB900202063202084F836
:102220003D00002084F83E00206C40F02000206437
:1022300000BF002084F83C0000BF0120BDE8F08111
:10224000C5F3074001280AD120684069A9B20840B7
:10225000A9B2884201D101200BE0002009E02068EA
:102260008069A9B20840A9B2884201D1012000E0EA
:102270000020B842C7D00020E0E72DE9F041044635
:102280000D4616461F463DE020684069C0F3802099
:10229000E8B12068006840F40070216808606FF4BD
:1022A00080602168486100202063202084F83D0080
:1022B000002084F83E00206C40F00400206400BF41
:1022C000002084F83C0000BF0120BDE8F081701CB4
:1022D000C0B1FEF7E7FBC01BB04200D896B90020A2
:1022E0002063202084F83D00002084F83E00206C0C
:1022F00040F02000206400BF002084F83C0000BFB4
:102300000120E2E7C5F3074001280AD120684069AF
:10231000A9B20840A9B2884201D101200BE00020F7
:1023200009E020688069A9B20840A9B2884201D1B9
:10233000012000E000200028A6D00020C5E770B5ED
:1023400004460D46164620E02046FFF795FE08B1EC
:10235000012070BD681CC0B1FEF7A4FB801BA84221
:1023600000D895B900202063202084F83D0000208B
:1023700084F83E00206C40F02000206400BF002064
:1023800084F83C0000BF0120E3E720684069C0F307
:10239000C0100028D8D00020DBE7000000B585B0D1
:1023A0000020019002900390049000BF3D48806996
:1023B00040F010003B4988610846806900F0100039
:1023C000009000BF00BF00BF0846806940F02000B9
:1023D00088610846806900F02000009000BF00BFBF
:1023E00000BF0846806940F00400886108468069A3
:1023F00000F00400009000BF00BF00BF08468069E5
:1024000040F0080088610846806900F008000090EC
:1024100000BF00BF00224FF460412348FEF73CFBA1
:10242000002218212148FEF737FB4FF4005001909D
:1024300001200290002003900220049001A91A4874
:10244000FEF792F94FF440400190012002900220E3
:102450000390049001A91448FEF786F90720019023
:10246000002002900220039001A91048FEF77CF999
:102470001820019001200290022003900320049074
:1024800001A90A48FEF770F940F6034001900020C8
:1024900002900120039001A90548FEF765F905B0F7
:1024A00000BD000000100240001001400008014083
:1024B000000C014010B50B480B4908600B48486000
:1024C000002109488160C1604FF480410161002111
:1024D00041618161C1610162FEF7EAFA08B1FEF76C
:1024E000A8F810BD005400406C040020A086010034
:1024F00010B50E480E4908604FF482704860002104
:102500000B488160C160016141614FF400718161DC
:102510002021C16100210162416281620A21C16200
:10252000FFF7D4F808B1FEF784F810BD0030014081
:10253000C004002010B50B480B4908604FF4E1308F
:102540004860002108488160C16001610C2141613F
:1025500000218161C161FFF789FC08B1FEF769F8CC
:1025600010BD0000003801401805002000BFFEE744
:1025700000BFFEE770B5002400202C490870202021
:102580002B49087000202B49087005202A49087043
:1025900000202A49087000F0D3FA012000F07AFCEC
:1025A0000520FEF7CDF80C21002002F027FD0F21B9
:1025B000052001F018FB032001F0FEFA022001F0D3
:1025C000BBFA10B1012019490870062001F05CF92E
:1025D0000446002001F0B0FA02F004F800211D20AA
:1025E00002F00CFD00211C2002F008FD0020114922
:1025F00008707021072002F001FD4C2001F095FACF
:1026000000F006FD00F009FD01F02CF9002001F0BA
:102610003BF920F001052946002002F0EFFC1CB137
:10262000FF2C01D0012070BD0020FCE74C000020F1
:102630004D0000204E000020540000204F000020DC
:102640007047000008B508490968C9084FF47A7254
:10265000B1FBF2F14143009100BF00BF00994A1E57
:1026600000920029F9D108BD68000020F8B50446A1
:102670000D4616462B46002280212046009600F08B
:1026800009F828B1606D40F0200060650320F8BDB6
:102690000020FCE72DE9F84F04460D4690461E4603
:1026A000DDF82890FEF7FEF9A0EB0900371AFEF7D7
:1026B000F9F982462C480068C0F3CB30784300908B
:1026C00045E0701C002842D0FEF7ECF9A0EB0A00B0
:1026D000B84200D2A7BB2068406820F0E000216823
:1026E00048606068B0F5827F0DD1A068B0F5004FFA
:1026F00003D0A068B0F5806F05D12068006820F095
:10270000400021680860A06AB0F5005F0DD100BFED
:102710002068006820F40050216808602068006884
:1027200040F400502168086000BF012084F8510087
:1027300000BF002084F8500000BF0320BDE8F88FE0
:10274000FFE7009800B900270098401E009020681D
:1027500080682840A84201D1012000E000204045C7
:10276000AFD10020EAE7000068000020704710B5F4
:10277000FEF772FB10BD00B58FB0282105A8FDF74C
:102780004AFE14216846FDF746FE0120059000042C
:102790000690002007900120099002200C90C103B0
:1027A0000D914FF4E0110E9105A8FEF75DFD08B103
:1027B000FDF73FFF0F2000900220019000200290C3
:1027C0004FF4806003900020049002216846FEF7D9
:1027D00015FC08B1FDF72DFF0FB000BD704770B5B7
:1027E00005466C6A0020E085E0842046FFF717FA72
:1027F00070BD0168C96821F490710268D1600168F8
:10280000496921F0010102685161016B012905D17B
:102810000168C96821F010010268D160202180F8A8
:102820003E1000210163704710B504462068C0685F
:1028300020F040002168C860202084F83D00204638
:10284000FFF704FC002010BDF8B5044694F83E00E4
:10285000222869D1A068B0F5805F0CD1206950B9F9
:102860000025A66A20684068C0F308003080A06A8E
:10287000801CA06215E0A56A0026A068B0F5805F04
:1028800003D0A06828B9206918B92068406828706A
:1028900004E02068406800F07F002870A06A401CB7
:1028A000A062E08D401E80B2E085A8BB2068C068B1
:1028B00020F020002168C8602068C06820F4807083
:1028C0002168C8602068406920F0010021684861E3
:1028D000202084F83E00206B01281ED100202063B8
:1028E0002068C06820F010002168C8602068006877
:1028F00000F0100010280AD100BF002000902068CE
:102900000068009020684068009000BF00BFA18D63
:102910002046FFF783F903E004E02046FFF72CFB95
:102920000020F8BD0020FCE70220FAE770B504465D
:102930002168096921F44051E2681143226811615C
:102940002269A1681143626941EA02052168C968E8
:1029500041F20C62914329432268D16021684969A0
:1029600021F44071A2691143226851612D4A216806
:10297000914202D1FEF71EFC01E0FEF70BFC00EBDA
:10298000C00101EB001162689200B1FBF2F100EBB3
:10299000C00202EB001263689B00B2FBF3F26423F7
:1029A000B2FBF3F202EBC20303EB0212A1EB8201D2
:1029B000322202EB01116422B1FBF2F101F0F001CD
:1029C00000EBC00202EB001263689B00B2FBF3F263
:1029D0006423B2FBF3F201EB021200EBC00101EB46
:1029E000001163689B00B1FBF3F100EBC00303EB44
:1029F00000136668B600B3FBF6F36426B3FBF6F388
:102A000003EBC30606EB0313A1EB8301322303EBB5
:102A100001116423B1FBF3F101F00F0111442268AD
:102A2000916070BD00380140014691F83D002128B9
:102A300028D18868B0F5805F0BD1086948B90A6A67
:102A40001088C0F308000B685860086A801C086290
:102A500005E00B6A581C086218780B685860C88C2F
:102A6000401E80B2C88458B90868C06820F0800051
:102A70000B68D8600868C06840F040000B68D860F8
:102A8000002070470220FCE72DE9F04104460D4686
:102A900017469846069E21E0701CF8B12EB1FEF74D
:102AA00001F8A0EB0800B04218D92068C06820F4F3
:102AB000D0702168C8602068406920F0010021685A
:102AC0004861202084F83D0084F83E0000BF0020CB
:102AD00084F83C0000BF0320BDE8F0812068006856
:102AE0002840A84201D1012000E00020B842D3D004
:102AF0000020F1E710B50248FFF792F810BD000082
:102B00001805002000BFFEE702480068C0F302205D
:102B1000704700000CED00E010B5002804DB0A0748
:102B2000130E054A135406E00A07140E034A00F078
:102B30000F031B1FD45410BD00E400E018ED00E0AB
:102B400010B50446224608210148FDF7A5FF10BD37
:102B5000000801402DE9F04707468846154608EB76
:102B6000C800092101EB40094FF00A0A09F0FF01F2
:102B7000002001F0DBF9554506DA0123154806C8A7
:102B8000384601F0ABFA22E0002400261CE004EBFA
:102B9000440202EBC4026E2303FB1622D0B206EB02
:102BA000C60209EB4202D1B201F0C0F9385D01233F
:102BB000084906C901F0E8F9641C0A2094FBF0F109
:102BC00000FB114000B9761CAC42E0DB00BFBDE861
:102BD000F08700001000002010B502213048FDF7FA
:102BE00053FF78B30921002001F0A0F94FF470528F
:102BF0000021084600F072F94FF410520121002024
:102C000000F06CF94FF47E420221002000F066F9DA
:102C10004FF40E420321002000F060F94FF42E42E1
:102C20000421002000F05AF94FF40E420521002043
:102C300000F054F94FF47E420621002000F04EF9D6
:102C4000012010BDFFE74FF402420021084600F0CA
:102C500045F94FF488420121002000F03FF94FF47C
:102C600020520221002000F039F94FF48052032154
:102C7000002000F033F94FF420520421002000F02E
:102C80002DF94FF488420521002000F027F94FF478
:102C900002420621002000F021F90020D1E70000C7
:102CA000000801402DE9F04786B007460E464FF078
:102CB00001084FF000094FF0000A002442F21070A2
:102CC00096FBF0F00A2190FBF1F201FB120001905B
:102CD0004FF47A7096FBF0F090FBF1F201FB1200DA
:102CE0000290642096FBF0F090FBF1F201FB1200E1
:102CF00003900A2096FBF0F090FBF1F201FB12002A
:102D000004900A2096FBF0F100FB11600590A1E011
:102D1000002535E0A5421BD101F0FCF807EBC70206
:102D2000082303EB4202D1B205EB450202EBC502D8
:102D3000D0B201F0FBF801A911F825103031C8B26A
:102D40000123474906C901F01FF901F0E3F816E035
:102D500007EBC702082303EB4202D1B205EB4502A1
:102D600002EBC502D0B201F0E1F801A911F825107B
:102D70003031C8B201233A4906C901F005F96D1C8A
:102D8000052DC7DB01213748FDF77EFE40B901F074
:102D9000C1F835A000F0E2F901F0BCF84FF00109EC
:102DA00002213048FDF770FE40B901F0B3F82FA0C2
:102DB00000F08EFD01F0AEF84FF0010A0121294824
:102DC000FDF762FEB0B1B9F1000F13D04FF000096A
:102DD00025A000F0C3F901A850F82400401C01A967
:102DE00041F8240001A850F82400092802DD002041
:102DF00041F8240002211B48FDF746FE40B3BAF11A
:102E0000000F25D04FF0000A18A000F061FD641CEF
:102E1000052C1CDDDDE9042102EB820201EB4201FD
:102E2000039A02EBC20303EB021201EB8202029946
:102E300001EB4103C3EBC11102EBC10240F271236C
:102E40000199594302EB011006B0BDE8F08700BFBD
:102E500001F00CFCB8F1000F7FF45AAF00BFF3E7AC
:102E600010000020000C0140757000006F6B000026
:102E700070B500240AE0092505E0E9B2E0B20022BD
:102E800000F03EFF6D1C372DF7DB641C7A2CF2DB63
:102E900070BD000010B50446224610210348FDF71E
:102EA000FBFD052000F004F810BD00000008014003
:102EB000074A1268074BB2FBF3F202FB00F1002253
:102EC000054B5A6000BF044A52688A42FBD37047E0
:102ED0006800002040420F00001000E02DE9F041A2
:102EE00005460E461746002411E007F4004030B1B5
:102EF000F1B22A19D0B2012200F002FF05E0F1B2CE
:102F00002A19D0B2002200F0FBFE7F00641C102CB6
:102F1000EBDBBDE8F08100002DE9F047074688466D
:102F200014460CB94FF6FF740026002565E04FF6F5
:102F3000FF70844206DA601B0022114601F08EF811
:102F400001F094FB00F0AEF84FF0000923E00121FE
:102F50002C48FDF799FD48B900F0DCFF2AA000F0ED
:102F6000FDF800F0D7FF01F081FB01260121254883
:102F7000FDF78AFD50B14EB123A000F0EFF801F04B
:102F800075FB00F09FF82846BDE8F0870020FDF7AC
:102F9000D7FB09F10109C145D9DB00F071FE00F052
:102FA00091F86D1C284600F009FC01F05FFB4FF022
:102FB000000920E001211348FDF766FD48B900F043
:102FC000A9FF11A000F0CAF800F0A4FF01F04EFB29
:102FD000012601210B48FDF757FD38B136B10AA093
:102FE00000F0BCF801F042FB2846CDE70020FDF7D9
:102FF000A7FB09F10109B945DCDBA54297DB2046B7
:10300000C2E70000000C014063616E63656C000064
:1030100010B5E22000F050FE10BD10B5E12000F028
:103020004BFE10BD70B504462825F4B94FF460522C
:1030300001212846FFF752FF4FF4F84202212846AB
:10304000FFF74CFF4FF4F84203212846FFF746FFF5
:103050004FF4F84204212846FFF740FF4FF4F842AE
:1030600005212846FFF73AFF1BE04FF4F842042100
:103070002846FFF733FF4FF4F84205212846FFF7B3
:103080002DFF4FF4605203212846FFF727FF00224F
:1030900001212846FFF722FF002202212846FFF7E0
:1030A0001DFF70BD10B500224FF400410348FDF72D
:1030B000F3FC00200249087010BD00000010014020
:1030C0005600002010B50122D1030348FDF7E4FCAF
:1030D00001200249087010BD001001405600002078
:1030E0000148006870470000580000202DE9F05F9B
:1030F00007468846914602261DE0C6F10D00820073
:10310000BA46C34650465946FDF766F80F2300EA13
:10311000030400250A22A21A75F1000005D330200D
:103120002018C01D09F8060003E03020201809F817
:10313000060006F101060F2EDFDBBDE8F09F10B59B
:10314000032000F0A1FB0446012C03DB032C01DC6F
:10315000012010BD0020FCE77047000070B5064656
:1031600000240AE0382505E0E9B2E0B2002200F0D0
:10317000C7FD6D1C402DF7DB641C3F2CF2DB3821B2
:10318000002000F0D3FE0123024806C8304600F0BC
:10319000A5FF70BD0000002010B50446022C05D12B
:1031A000FFF790FF012001F069FA10BD012C08D053
:1031B0003CB10F2C05D0142C03D01E2C01D0322C86
:1031C00017D10E2C01D083480460FFF751FE00F0A8
:1031D000A1FE0A22002180A0FFF7BCFC00F09AFEAD
:1031E0000A2201217FA0FFF7B5FC0A2001F046FA70
:1031F000DBE70A2C11D100F08DFE0A22012179A013
:10320000FFF7A8FC00F086FE0A22002172A0FFF75B
:10321000A1FC0B2001F032FAC7E70B2C11D100F012
:1032200079FE0A22012172A0FFF794FC00F072FEE1
:103230000A2200216BA0FFF78DFC0C2001F01EFA82
:10324000B3E70C2C11D100F065FE0A2201216BA01E
:10325000FFF780FC00F05EFE0A22002164A0FFF769
:1032600079FC0D2001F00AFA9FE70D2C11D100F036
:1032700051FE0A22012164A0FFF76CFC00F04AFE17
:103280000A2200215DA0FFF765FC0E2001F0F6F98F
:103290008BE70E2C11D100F03DFE0A2201215DA02A
:1032A000FFF758FC00F036FE0A22002156A0FFF777
:1032B00051FC0F2001F0E2F977E7152C03D114201F
:1032C00001F0DCF971E71F2C03D11E2001F0D6F9C3
:1032D0006BE7282C05D02E2C03D040F291108442AD
:1032E00011D100F017FE0A2200214DA0FFF732FC99
:1032F00000F010FE0A2201214CA0FFF72BFC292030
:1033000001F0BCF951E7292C11D100F003FE0A228B
:10331000012146A0FFF71EFC00F0FCFD0A2200215F
:103320003FA0FFF717FC2A2001F0A8F93DE72A2C5F
:1033300011D100F0EFFD0A2201213FA0FFF70AFCA6
:1033400000F0E8FD0A22002138A0FFF703FC2B2043
:1033500001F094F929E72B2C11D100F0DBFD0A22B2
:1033600001212CA0FFF7F6FB00F0D4FD0A2200217A
:1033700031A0FFF7EFFB2C2001F080F915E72C2C92
:1033800011D100F0C7FD0A2201212EA0FFF7E2FBB8
:1033900000F0C0FD0A22002127A0FFF7DBFB2D2053
:1033A00001F06CF901E72D2C11D100F0B3FD0A22D8
:1033B000012118A0FFF7CEFB00F0ACFD0A2200218E
:1033C00020A0FFF7C7FB2E2001F058F9EDE600BF63
:1033D000EBE60000580000206F6E652073686F6F89
:1033E00074200000656E646C6573732020200000FB
:1033F0006C696D69746564202020000077697265CE
:103400006C6573732020000061626F75742020204A
:10341000202000006261636B20202020202000001B
:103420007363616E2020202020200000737461747B
:10343000757320202020000073657474696E6773B3
:103440002020000070756C742020202020200000B7
:1034500090B0FDF70DFDFFF78EF9FEF79FFFFFF728
:1034600029F8FFF745F8FFF765F8012291038D4829
:10347000FDF712FB0122D1038A48FDF70DFB4FF641
:10348000FF730D2288A18C48FEF777FD8B4800F072
:1034900097FC07464FF00008002F7DD14FF47A705B
:1034A000FDF74EF94FF6FF730D2285A18248FEF716
:1034B00064FD002000F074FC804800F03DFD00F049
:1034C00013FC7E4800F038FD00F01EFE7B4800F043
:1034D00033FD4FF4FA70FDF733F900F005FC01F00D
:1034E0003BF8764800F028FDFFF776FB60B1092134
:1034F000002000F01BFD0123754806C875A000F0F0
:10350000EDFD4FF0010809E00921002000F00EFD5B
:1035100001236F4806C871A000F0E0FDFDF776F8C2
:10352000FFF70DFE044640216846FCF774FF6DA3CB
:103530006DA240216846FCF777FE0921002000F0CB
:10354000F5FC01236C4806C8684600F0C7FDFFF78C
:1035500011F80446002C03DDFF2C01DA61A000E025
:1035600066A0034667A240216846FCF75DFE132172
:10357000002000F0DBFC01235F4806C8684600F02D
:10358000ADFD002C09DDFF2C07DA012000F0DEF88C
:1035900001205F49087003E00DE0002000F0D6F83C
:1035A000464800F0C9FC4FF4FA70FDF7C9F8012055
:1035B0005849087006E04FF6FF73092256A13E48AD
:1035C000FEF7DBFCFFF754FCB8F1000F08D1142222
:1035D000002154A0FFF7BEFA584800F079F902E044
:1035E000012001F04BF8002000F0E8F8334800F02B
:1035F000A3FC0025002654E002215148FDF744FABF
:1036000050B900F087FC4D4800F062F92B4800F0FB
:1036100093FC00F07FFC012502214948FDF734FAB4
:1036200058B1464800F054F9244800F085FC25B113
:1036300000254448006800F069F901214048FDF781
:1036400023FA50B900F066FC3F48FFF787FD1B489E
:1036500000F072FC00F05EFC012601213848FDF705
:1036600013FA58B13848FFF779FD144800F064FCAC
:1036700026B1002633480068FFF78EFDFFF7ACFA4D
:103680000E4800F059FC05B12EB90122510305483E
:10369000FDF702FA05E000224FF400510148FDF762
:1036A000FBF9A9E70010014048656C6C6F20776F4B
:1036B000726C640D0A000000180500206C040020E4
:1036C0005375637365737366756C6C0D0A00000047
:1036D00010000020747275650000000066616C7354
:1036E000650000004F4B0000436F6E6E65637465AC
:1036F000643A2025730A0000080000204E4F542031
:103700004F4B0000496E69743A2025730A0000008F
:103710004A000020490000204661696C2121210DEA
:103720000A00000063616D657261206E6F74206332
:103730006F6E6E6563746564000000003C000020DD
:10374000000C0140280000204400002070B506460F
:1037500076240AE0002505E0E9B2E0B2002200F09C
:10376000CFFA6D1C082DF7DB641C802CF2DBF6B160
:103770004FF4785202217620FFF7B0FB4FF48242DB
:1037800003217620FFF7AAFB49F680420421762028
:10379000FFF7A4FB4FF4085205217620FFF79EFBAC
:1037A0004FF4006206217620FFF798FB04E0012227
:1037B00006217A2000F0A4FA70BD00002DE9FC4734
:1037C000044623A103C9CDE90001412526464FF057
:1037D00000092F460EE04FF0000807E008F0FF0157
:1037E000F8B2002200F08CFA08F10108B8F1080FD5
:1037F000F4DB7F1C05F124008742ECDBE8B20021FA
:1038000000F094FB34B90123134806C813A000F05C
:1038100065FC1BE00FE00A2096FBF0F100FB116055
:103820003030C0B2C9F104010DF8010009F10109FD
:103830000A2096FBF0F6002EEDDC00208DF8050046
:103840000123054806C8684600F048FCBDE8FC872F
:103850002020202020000000000000202020203018
:103860000000000010B5002000F00EF8044604F03F
:10387000020038B944F00201002001F0BFFB05202E
:10388000FCF75EFF10BD00003EB5044604F01F00CB
:10389000029000200190FFF7FDFA4FF47A700123A7
:1038A00001AA02A900900948FEF789F84FF47A703E
:1038B000012301AAFF2100900448FEF780F80120AF
:1038C000FFF7E8FA9DF804003EBD0000C0040020A8
:1038D00070B5064641240AE0382505E0E9B2E0B2B9
:1038E000002200F00DFA6D1C402DF7DB641C802CCB
:1038F000F2DB3821412000F019FB0123024806C801
:10390000304600F0EBFB70BD0000002070B50446AF
:1039100014B9012000F0B2FE012C0BD1FFF7C2FB5D
:103920000120FFF77FFB002000F06AF9022000F081
:10393000A5FE70BD022C0DD100F0A2F9012000F00F
:103940005FF9FFF7BFFB0020FFF76CFB032000F0DF
:1039500095FEEEE70A2C05D1FFF78AFA012000F068
:103960008DFEE6E70B2C05D1FFF782FA142000F05C
:1039700085FEDEE70C2C05D1FFF77AFA1E2000F059
:103980007DFED6E70D2C05D1FFF772FA282000F056
:1039900075FECEE70E2C05D1FFF76AFA322000F053
:1039A0006DFEC6E70F2C07D1FFF762FAFFF798FB11
:1039B000054600F063FEBCE7142C05D1FFF758FA6A
:1039C000152000F05BFEB4E7152C08D11BA0FFF713
:1039D000C5FBFFF74DFA162000F050FEA9E71E2C9C
:1039E00005D1FFF745FA1F2000F048FEA1E71F2C84
:1039F00008D112A0FFF7B2FBFFF73AFA202000F03F
:103A00003DFE96E7292C0FD1FFF732FA0A2200215A
:103A10000CA0FFF79FF8052201210DA0FFF79AF8EF
:103A200040F2911000F02AFE2E2C04D101242046F1
:103A3000FFF7B2FB7DE700BF7BE7000063616E63C9
:103A4000656C00007363616E20206D616B65000022
:103A500066696E643A0000002DE9F0470746894622
:103A6000032F1EDA0C240FE0E1B201227E2000F0C9
:103A700047F9E1B201227F2000F042F9E1B20122D0
:103A80007D2000F03DF9641C352CEDDB01220B217B
:103A90007E2000F035F9012235217E2000F030F93A
:103AA00041E00B260EE04FF07D0807E0F1B208F090
:103AB000FF00002200F024F908F10108B8F1800F9E
:103AC000F4DB761C362EEEDB282F01DB012402E02E
:103AD000282090FBF7F409FB04F000F10C052E46BA
:103AE0000FE0F1B201227E2000F00AF9F1B20122CA
:103AF0007F2000F005F9F1B201227D2000F000F9ED
:103B0000761C2819401CB042EBDC681EC1B20122B1
:103B10007E2000F0F5F82819401CC1B201227E2059
:103B200000F0EEF800BFBDE8F08710B5044621466E
:103B3000052001F063FA10BD2DE9F041054600278C
:103B40000620FFF7A1FE044624F0280455200F4963
:103B50000870022D04D144F020049B20087006E078
:103B6000012D04D144F00804412008490870214681
:103B7000062001F043FA0620FFF786FE0646A6421D
:103B800000D101273846BDE8F08100005500002033
:103B900010B50446032C02D1012000F06FFD142C57
:103BA00002D1142000F06AFD1E2C01D01F2C02D17E
:103BB0001E2000F063FD10BD70B504460620FFF71F
:103BC00063FE00F0F805032C01DD072403E001206B
:103BD00000EB4400C4B245EA040005460146062055
:103BE00001F00CFA70BD70B504460D4604F00F02EA
:103BF000284662F31F100146042001F0FFF970BD52
:103C000070B504463025F4B94FF4605201212846BE
:103C1000FFF764F94FF4F84202212846FFF75EF9F6
:103C20004FF4F84203212846FFF758F94FF4F842C1
:103C300004212846FFF752F94FF4F842052128469F
:103C4000FFF74CF91BE04FF4F84204212846FFF738
:103C500045F94FF4F84205212846FFF73FF94FF4A4
:103C6000605203212846FFF739F900220121284636
:103C7000FFF734F9002202212846FFF72FF970BD23
:103C800010B500224FF480410948FCF705FF0120E0
:103C9000084908706420FCF753FD01229103044891
:103CA000FCF7FAFE002003490870012010BD000057
:103CB000001001405700002001B582B000200190A3
:103CC000FFF7E8F84FF47A70012301AA02A90090E7
:103CD0000448FDF774FE0120FFF7DCF89DF80400AE
:103CE0000EBD0000C0040020002003E00021034AB4
:103CF0001154401CB0F5806FF8DD70476C00002057
:103D0000F0B503461446802B01DA402900DBF0BDF4
:103D10002148007920B10CB9012000E000200446C0
:103D2000012C1CD1CD1701EB5575ED1003EBC5151A
:103D30001A4E755D0A46CE1701EB5676F610A1EBCA
:103D4000C6070126BE403543EEB20846CD1701EB4B
:103D50005575ED1003EBC515104F7E551AE0CD17C4
:103D600001EB5575ED1003EBC5150C4E755D0A465C
:103D7000CE1701EB5676F610A1EBC6070126BE4022
:103D8000B5430846CE1701EB5676F61003EBC61680
:103D9000024FBD5500BFBAE7200000206C00002094
:103DA0000146002006E009B9002200E0FF22034B93
:103DB0001A54401CB0F5806FF5D370476C0000209A
:103DC00070B505466420FCF7BBFC0024AE212846F4
:103DD00000F032F9044404B900242021284600F000
:103DE0002BF9044404B900241021284600F024F9DA
:103DF0000444B021284600F01FF90444C821284695
:103E000000F01AF904440021284600F015F9044492
:103E10001021284600F010F904444021284600F003
:103E20000BF904448121284600F006F90444FF21DF
:103E3000284600F001F90444A121284600F0FCF8CE
:103E40000444A621284600F0F7F80444A821284697
:103E500000F0F2F804443F21284600F0EDF8044455
:103E6000A421284600F0E8F80444D321284600F0B5
:103E7000E3F804440021284600F0DEF80444D5218C
:103E8000284600F0D9F80444F021284600F0D4F880
:103E90000444D921284600F0CFF8044422212846C2
:103EA00000F0CAF80444DA21284600F0C5F80444BA
:103EB0001221284600F0C0F80444DB21284600F017
:103EC000BBF804442021284600F0B6F804448D21B4
:103ED000284600F0B1F804441421284600F0ACF85C
:103EE0000444AF21284600F0A7F804440CB1012097
:103EF00070BD0020FFF754FF284600F01DF8002099
:103F0000034908804880012048710020F0E7000044
:103F1000200000200448007908B9012000E00020BA
:103F2000014908717047000020000020014A1080FC
:103F300051807047200000203EB5054600241DE05A
:103F400004F1B000C1B2284600F076F800212846FE
:103F500000F072F81021284600F06EF864218022EB
:103F6000084802FB04000123CDE901210090402212
:103F700078212846FCF784FE601CC4B2082CDFDBE5
:103F80003EBD00006C0000202DE9FF4107461E46A3
:103F9000284800889DF804100844802806DA25483F
:103FA00040889DF805100844402803DB002004B039
:103FB000BDE8F081002430E0A7F120009DF8051055
:103FC00000FB0140029931F81080002520E008FA3A
:103FD00005F000F4004058B1164A92782244D1B25C
:103FE000144A12782A44D0B23246FFF789FE0EE016
:103FF0000EB9012300E000231A460E4B9B782344A0
:10400000D9B20C4B1B782B44D8B2FFF779FE6D1C4C
:104010009DF80400A842DAD8641C9DF80500A0426F
:10402000CAD8044800889DF8041008440149088053
:104030003846BCE72000002013B584B004460A20AF
:10404000012105AA0B46CDE900210290002278212A
:104050002046FCF715FE06B010BD00002DE9FC411E
:1040600005460E46904618A103C9CDE900012C462D
:10407000002708F10902D1B2F0B2FFF757FF35B9B6
:104080000123134806C813A000F028F81AE00EE038
:104090000A2094FBF0F100FB11403030C0B2C7F1B0
:1040A00004010DF801007F1C0A2094FBF0F4002CA1
:1040B000EEDC00208DF805000123054806C868469F
:1040C00000F00CF8BDE8FC8120202020200000003A
:1040D0001000002020202030000000003FB50446E2
:1040E0001D460CE020782B46DDE90112FFF74CFF5E
:1040F0002178884202D0207804B030BD641C20783A
:104100000028EFD12078F7E770B52025172405E0C7
:10411000E1B201220020FFF7F3FD641C292CF7DD3A
:10412000142405E0E1B201221046FFF7E9FD641C0A
:104130002C2CF7DD122405E0E1B201220220FFF76A
:10414000DFFD641C2E2CF7DD11240AE0E1B2012210
:104150000320FFF7D5FDE1B201220420FFF7D0FDD7
:10416000641C2F2CF2DD102405E0E1B201220520B1
:10417000FFF7C6FD641C302CF7DD0F240AE0E1B226
:1041800001220620FFF7BCFDE1B201220720FFF764
:10419000B7FD641C312CF2DD0E240FE0E1B20122E8
:1041A0000820FFF7ADFDE1B201220920FFF7A8FDCD
:1041B000E1B201220A20FFF7A3FD641C322CEDDDE1
:1041C0000D240AE00B2605E0E1B2F0B20122FFF770
:1041D00097FD761C112EF7DD641C332CF2DD0E24C6
:1041E0000AE0122605E0E1B2F0B20122FFF788FDF5
:1041F000761C142EF7DD641C322CF2DD0F240AE04D
:10420000152605E0E1B2F0B20122FFF779FD761C38
:10421000162EF7DD641C312CF2DD10240AE017267F
:1042200005E0E1B2F0B20122FFF76AFD761C182E1C
:10423000F7DD641C302CF2DD112405E0E1B201222F
:104240001920FFF75DFD641C2F2CF7DD122405E01B
:10425000E1B201221A20FFF753FD641C2E2CF7DD7A
:10426000132405E0E1B201221B20FFF749FD641C85
:104270002D2CF7DD142405E0E1B201221C20FFF70C
:104280003FFD641C2C2CF7DD15240AE01D2605E0FB
:10429000E1B2F0B20122FFF733FD761C5F2EF7DDAD
:1042A000641C2B2CF2DD0B2405E0E1B2012260201E
:1042B000FFF726FD641C352CF7DD0A2405E0E1B28A
:1042C00001226120FFF71CFD641C362CF7DD082459
:1042D0000AE0E1B201226220FFF712FDE1B2012201
:1042E0006320FFF70DFD641C382CF2DD07240AE083
:1042F000E1B201226420FFF703FDE1B20122652053
:10430000FFF7FEFC641C392CF2DD06240AE0E1B262
:1043100001226620FFF7F4FCE1B201226720FFF7DB
:10432000EFFC641C3A2CF2DD052405E0E1B2012229
:104330006820FFF7E5FC641C3B2CF7DD04240AE051
:10434000692605E0E1B2F0B20122FFF7D9FC761C44
:104350006D2EF7DD641C3C2CF2DD03240AE06E2692
:1043600005E0E1B2F0B20122FFF7CAFC761C772E1D
:10437000F7DD641C3D2CF2DD04240AE0E1B20122E9
:104380007820FFF7BDFCE1B201227920FFF7B8FCED
:10439000641C3C2CF2DD052405E0E1B201227A2008
:1043A000FFF7AEFC641C3B2CF7DD062405E0E1B210
:1043B00001227B20FFF7A4FC641C3A2CF7DD0724C4
:1043C0000AE0E1B201227C20FFF79AFCE1B201226F
:1043D0007D20FFF795FC641C392CF2DD0A2405E0F2
:1043E000E1B201227E20FFF78BFC641C362CF7DD46
:1043F0000C2405E0E1B201227F20FFF781FC641C60
:10440000342CF7DDFFF786FD01222B211D20FFF75D
:1044100077FC01222A211D20FFF772FC01222921AD
:104420001D20FFF76DFC012229211E20FFF768FCEB
:10443000012228211F20FFF763FC012227211F20D2
:10444000FFF75EFC012226211F20FFF759FC012205
:1044500026212020FFF754FC012225212020FFF7F0
:104460004FFC012224212020FFF74AFC01222321B6
:104470002020FFF745FC012223212120FFF740FCEB
:10448000012222212120FFF73BFC012221210846A5
:10449000FFF736FC012220212120FFF731FC012209
:1044A00015211D20FFF72CFC012216211D20FFF7EE
:1044B00027FC012217211D20FFF722FC01221721D2
:1044C0001E20FFF71DFC012218211F20FFF718FCFA
:1044D000012219211F20FFF713FC01221A211F209E
:1044E000FFF70EFC01221A212020FFF709FC012210
:1044F0001B212020FFF704FC01221C212020FFF7B4
:10450000FFFB01221D212020FFF7FAFB01221E21C3
:104510002120FFF7F5FB01221E212120FFF7F0FBF0
:1045200001221F212120FFF7EBFB01222021212066
:10453000FFF7E6FB60240AE0E0B201222B21FFF73F
:10454000DFFBE0B201221521FFF7DAFB641C7F2CB0
:10455000F2DDFFF7DFFC70BD10B5002405E0E0B22E
:1045600001220821FFF7CCFB641C802CF7DB002420
:1045700005E0E0B201223721FFF7C2FB641C802C6A
:10458000F7DB002407E0C4F13F00C1B20122402064
:10459000FFF7B6FB641C082CF5DB092405E0E1B24B
:1045A00001227B20FFF7ACFB641C372CF7DB3821A2
:1045B0000020FFF7BBFC0123074806C807A0FFF750
:1045C0008DFD00210120FFF747FA0020FEF72AFDAC
:1045D0000020FFF715FB10BD000000206D656E7513
:1045E0000000000008B5502000900020FEF752FCAB
:1045F0004FF47A73012269460648FDF709F94FF432
:104600007A73012273210348FDF702F90120FEF7B6
:1046100041FC08BDC004002070B504460D46AAB296
:104620004FF6FF7321460248FDF7A7FC70BD00005E
:104630001805002070B504462046FBF7CDFE054660
:1046400029462046FFF7E8FF70BD000010B504467C
:1046500029462046FEF780FD2846FFF7EBFF02A023
:10466000FFF7E8FF10BD00000D0A000010B502487A
:10467000FFF762FC10BD00006C04002070B586B02E
:104680000646F64806600068A0B9F5A0FFF7D2FF1D
:10469000F9A1FB48FBF77CFEFAA1FC48FBF778FE8A
:1046A000FEF7E6FB14220021F9A0FEF753FAFE48BC
:1046B000FFF742FCE9480068012817D1FBA0FFF78B
:1046C000B9FFEDA1EE48FBF763FEEEA1EF48FBF763
:1046D0005FFEFEF7CDFB0E220021F9A0FEF73AFAAD
:1046E0000120FFF755FAF048FFF726FCDB48006889
:1046F000022815D1F6A0FFF79DFFF7A1E048FBF7D0
:1047000047FEF7A1E148FBF743FE05220121DDA0AA
:10471000FEF720FA0220FFF73BFAE348FFF70CFC14
:10472000CE480068032822D1EFA0FFF783FFF048AE
:104730000068401CEE49086008460068FFF73EF834
:10474000EB48ECA1026801A8FBF75AFD01A8FFF7AE
:1047500071FFE7480068FFF779FF0020FFF750FA84
:10476000D148FFF7E9FB0320FFF712FA00BFBB486F
:1047700000680A281AD100210620FFF76DF9E2A18E
:10478000BF48FBF705FEE2A1C048FBF701FEBC48AD
:10479000FEF7E4FCBD48FFF79BF8DEA0FFF74AFFF9
:1047A000E6A0FFF747FFC048FFF7C6FBAB4800682D
:1047B0000B2814D101210620FFF74EF9D2A1B048F1
:1047C000FBF7E6FDD2A1B148FBF7E2FDAC48FEF7EE
:1047D000C5FCAE48FFF77CF8B348FFF7ADFB9F4838
:1047E00000680C2814D102210620FFF735F9C6A174
:1047F000A348FBF7CDFDC6A1A448FBF7C9FDA0481F
:10480000FEF7ACFCA148FFF763F8A748FFF794FB5D
:10481000924800680D2814D103210620FFF71CF9E7
:10482000B9A19748FBF7B4FDB9A19848FBF7B0FDD3
:104830009348FEF793FC9548FFF74AF89A48FFF72C
:104840007BFB864800680E2814D104210620FFF760
:1048500003F9ADA18A48FBF79BFDADA18B48FBF79F
:1048600097FD8748FEF77AFC8848FFF731F88E48B5
:10487000FFF762FB794800680F2814D10521062054
:10488000FFF7EAF8A0A17E48FBF782FDA0A17F48D0
:10489000FBF77EFD7A48FEF761FC7C48FFF718F8CD
:1048A0008148FFF749FB6D480068142828D1002192
:1048B0000120FFF7D1F88E480068FEF77FFF6EA158
:1048C0006F48FBF765FD6E48FEF748FCA7A16F48EF
:1048D000FBF75EFD6D48FEF7FBFFFEF7C9FA072206
:1048E0000021A5A0FEF736F904220121A4A0FEF7BD
:1048F00031F96D48FFF720FB5FA16148FBF748FDE8
:1049000056480068152841D100210120FFF7A4F87E
:104910009DA15B48FBF73CFD5948FEF71FFC7CA1BD
:104920005A48FBF735FD5948FEF7D2FF0A2200210D
:1049300096A0FEF70FF94FF47A710120FEF7B2F955
:10494000954908600A22002194A0FEF703F94FF46C
:10495000FA710120FEF7A6F993490860FEF788FA7C
:104960000622002191A0FEF7F5F892A14448FBF73A
:104970000FFD91A14548FBF70BFD4448FEF7A8FF4A
:104980003F48FEF7EBFB4848FFF7D6FA334800688C
:10499000162861D150A13A48FBF7FAFC3848FEF7D7
:1049A000DDFB86A13948FBF7F3FC3848FEF790FFA2
:1049B00083A1D1E900208968CDE9032005917648DB
:1049C000046800250DE00A2094FBF0F100FB114083
:1049D0003030C5F1090103AA50540A2094FBF0F4C9
:1049E0006D1C002CEFDC0A22002103A8FEF7B2F8B0
:1049F00076A2D2E900109268CDE9010200916A48DE
:104A0000046800250EE00A2094FBF0F100FB114041
:104A10003030C0B2C5F109010DF801000A2094FB45
:104A2000F0F46D1C002CEEDC0A2201216846FEF732
:104A300091F81D48FFF780FA00225B48016856484C
:104A40000068FEF769FA2A4909680844284908609D
:104A50001420FFF79DF8BFE0BFE000002800002011
:104A600063616D657261206E6F7420636F6E6E6539
:104A7000637465640D0A00006D656E7500000000CA
:104A800044000020666F6375730000003C00002046
:104A900063616D657261206E6F7420636F6E6E6509
:104AA00063746564000000006C0400206F6E652074
:104AB00073686F6F74206D6F64650D0A00000000ED
:104AC0006F6E652073686F6F74206D6F6465000092
:104AD000666F6375730D0A0063616E63656C000039
:104AE00073686F6F7400000070686F746F0D0A0058
:104AF0002C000020746F74616C2070686F746F7389
:104B00003A2025640D0A0000646F776E00000000F3
:104B10006F6B00006D656E75206F70656E65640D5E
:104B20000A312E206F6E652073686F6F740D0A3224
:104B30002E20656E646C6573730D0A00332E206C35
:104B4000696D697465640D0A342E20776972656C2D
:104B50006573730D0A352E2061626F75740D0A3608
:104B60002E206261636B0D0A00000000736574748F
:104B7000696E677300000000656E646C6573730096
:104B80006D6F6465000000007570000070617573E2
:104B9000652074696D65000030000020666F6375E4
:104BA000732074696D6500003400002073746172B5
:104BB000743F00006E6F00007965730020200000D4
:104BC000706175736520202020300000666F63756A
:104BD000732020202030000000BFDF4800681E281E
:104BE00028D100210320FEF737FFAFF27411DB4814
:104BF000FBF7CEFBD948FEF7B1FAAFF29001D848E7
:104C0000FBF7C6FBD648FEF763FEFEF731F9072235
:104C10000021D4A0FDF79EFF04220121AFF2A000E5
:104C2000FDF798FFD148FFF787F9AFF2B411CB48F1
:104C3000FBF7AEFBC84800681F2867D100210120A0
:104C4000FEF70AFFAFF2C001C448FBF7A1FBC3485F
:104C5000FEF784FAAFF24811C148FBF799FBC04850
:104C6000FEF736FE00210320FEF7F6FE0A220021A1
:104C7000AFF2E800FDF76EFF4FF47A710120FEF706
:104C800011F8BB49086001210320FEF7E5FE0A2266
:104C90000021AFF2F800FDF75DFF4FF4FA7101203B
:104CA000FEF700F8B349086002210320FEF7D4FEA6
:104CB000FEF7DEF805220021AFA0FDF74BFF002133
:104CC0000120FDF7EFFFAE490860FEF7D1F806229C
:104CD0000021AFF22810FDF73DFFAFF228119F48E9
:104CE000FBF756FBAFF230119D48FBF751FB9C4898
:104CF000FEF7EEFD9948FEF731FA9C48FFF71CF9E4
:104D00009F48006810B91F20FEF742FF92480068D4
:104D1000202824D1AFF240219048FBF739FB8F487F
:104D2000FEF71CFAAFF26C118D48FBF731FB8C4893
:104D3000FEF7CEFDFEF79CF88C48FFF7FDF8904893
:104D400002688C4801688A480068FEF7E5F88D49DA
:104D5000096808448B4908601E20FEF719FF7E4849
:104D6000006828281CD1AFF260217C48FBF710FBBB
:104D70007A48FEF7F3F9AFF268217948FBF708FBB0
:104D80007748FEF7A5FDFEF773F873480068FEF755
:104D900003FAAFF28C217148FBF7FAFA06B070BD46
:104DA0006D480068292809D177490978081D002134
:104DB000FEF752FE6D48FFF7BFF8EFE76648006860
:104DC0002A2809D170490978081D0121FEF744FEFF
:104DD0006648FFF7B1F8E1E75F4800682B280FD17C
:104DE0006948007810B12C205B4908606649097851
:104DF000081D0221FEF730FE5C48FFF79DF8CDE765
:104E0000554800682C280CD12E20534908605E4973
:104E10000978081D0221FEF71FFE5448FFF78CF8A1
:104E2000BCE74D4800682D2809D157490978081D6D
:104E30000321FEF711FE4D48FFF77EF8AEE7464826
:104E400000682E280BD1504A1278D11C4E4A127895
:104E5000101DFEF701FE4548FFF76EF89EE73E483D
:104E6000006832285ED100210120FEF7F5FDAFF287
:104E7000B4213B48FBF78CFA3948FEF729FDAFF225
:104E800008413648FBF784FA3448FEF767F9FDF726
:104E9000EFFF09210020FFF749F801233B4806C82E
:104EA0003BA0FFF71BF913210020FFF73FF83BA3BE
:104EB0000FCB02AC0FC402AA3C48E821FEF716F95A
:104EC0000123324806C802A8FFF708F91D21002077
:104ED000FFF72CF83648007830B101232B4806C87C
:104EE00034A0FFF7FBF805E00123284806C834A0EA
:104EF000FFF7F4F827210020FFF718F8FDF76CFE04
:104F000030B10123214806C831A0FFF7E7F805E0DA
:104F100001231E4806C831A0FFF7E0F81348FFF749
:104F20000BF800BF0C48006840F29111884210D184
:104F30002EA10B48FBF72CFA0948FEF7C9FC2DA15E
:104F40000648FBF725FA0548FEF708F90748FEF77B
:104F5000F3FF00BF22E700002800002044000020EB
:104F60003C0000206C696D69746564006C0400206D
:104F70003000002034000020746F74616C00000069
:104F8000380000202C0000204B00002008000020EA
:104F9000747562652061647265733A0030783030F0
:104FA000303030303030303030300000E2F0F0E877
:104FB0004A0000204E52463234204F4B0000000081
:104FC0004E52463234204E4F54204F4B00000000CA
:104FD00050484F544F204F4B0000000050484F5452
:104FE0004F204E4F54204F4B0000000073746172ED
:104FF000740000006261636B0000000013B584B0B0
:1050000004460020039004F01F0040F020000290AE
:105010000020FDF73FFF6420012303AA02A90090AE
:105020000848FCF7CCFC4FF47A73012205A9054827
:10503000FCF7EEFB0120FDF72DFF9DF80C0006B0FC
:1050400010BD0000C00400200000000000000000AF
:105050000000000000000010001000100010001000
:1050600000000010002800280000000000000000E0
:10507000000000240024007C00240048007C00483C
:105080000038005400500038001400540054002030
:105090000054005800300028005400140038002844
:1050A00000100034004800480034001000100000D8
:1050B0000000000000000000000800100020002098
:1050C0000020001000080020001000080008000860
:1050D0000010002000100038001000280000000020
:1050E0000000000000100010007C00100010000004
:1050F0000000000000000000000000100010000090
:105100000000000000000038000000000000000067
:10511000000000000000001000000008000800105F
:10512000001000100020002000380044004400540B
:10513000004400440038000000100030001000104F
:105140000010000000380044000400080010002097
:10515000007C0078000400180004000400440038BB
:105160000000001000300050007800100000007CAB
:10517000004000400078000400440038003800443B
:1051800000400078004400440038007C000400081F
:1051900000100010002000200038004400440038B7
:1051A000004400440038003800440044003C00043F
:1051B0000044003800100000000000000000001053
:1051C00000000000001000000000000000100010AF
:1051D0000000000C003000400030000C0000000017
:1051E0000000007C0000007C000000000000006067
:1051F000001800040018006000000038004400049B
:10520000000800100000001000380044004C00545A
:10521000004000400038000000380044003C0044DA
:10522000004C003400400058006400440044006416
:10523000005800000038004400400040004400389E
:1052400000040034004C00440044004C00340000D2
:1052500000380044007C004000440038000C00107E
:10526000007C001000100010001000000034004C02
:1052700000440044004C00340040005800640044E6
:1052800000440044004400100000007000100010B2
:10529000001000100010000000700010001000103E
:1052A00000E000400048005000600050004800440A
:1052B000007000100010001000100010001000001E
:1052C000007800540054005400540054000000586A
:1052D00000640044004400440044000000380044DE
:1052E00000440044004400380000005800640044BA
:1052F00000640058004000000034004C0044004CA2
:1053000000340004000000580064004000400040E9
:10531000004000000038004400300008004400381D
:10532000002000200078002000200020001800004D
:105330000044004400440044004C00340000004499
:1053400000440028002800280010000000540054E9
:105350000054006C002800280000004400280010C1
:10536000001000280044000000440028002800101D
:10537000001000600000007C0008001000200040C9
:10538000007C001800100010001000100010001821
:10539000002000200010001000100008000800305D
:1053A0000010001000100010001000300010002845
:1053B0000028004400000000000000000000000081
:1053C00000000000000000FE0020001000000000AF
:1053D000000000000000000000380044003C0044D1
:1053E000004C003400400058006400440044006455
:1053F00000580000003800440040004000440038DD
:1054000000040034004C00440044004C0034000010
:1054100000380044007C004000440038000C0010BC
:10542000007C001000100010001000000034004C40
:1054300000440044004C0034004000580064004424
:1054400000440044004400100000007000100010F0
:10545000001000100010000000700010001000107C
:1054600000E0004000480050006000500048004448
:10547000007000100010001000100010001000005C
:1054800000780054005400540054005400000058A8
:10549000006400440044004400440000003800441C
:1054A00000440044004400380000005800640044F8
:1054B00000640058004000000034004C0044004CE0
:1054C0000034000400000058006400400040004028
:1054D000004000000038004400300008004400385C
:1054E000002000200078002000200020001800008C
:1054F0000044004400440044004C003400000044D8
:105500000044002800280028001000000054005427
:105510000054006C002800280000004400280010FF
:10552000001000280044000000440028002800105B
:10553000001000600000007C000800100020004007
:10554000007C00180010001000200020001000183F
:1055500000100010001000100010001000100030AB
:1055600000100010000800080010003000000000CB
:105570000074004C0000000000000000000000006B
:10558000000000000000000000000000000000100B
:1055900000100010001000100010000000100000AB
:1055A0000000002800280028000000000000000083
:1055B00000000000000000240024007C00240048BB
:1055C000007C0048004800000000003800540050F3
:1055D000003800140054005400380010000000206F
:1055E0000054005800300028005400140008000047
:1055F0000000001000280028001000340048004877
:105600000034000000000010001000100000000036
:105610000000000000000000000000080010002052
:1056200000200020002000200020001000080020A2
:10563000001000080008000800080008000800101A
:1056400000200010003800100028000000000000BA
:105650000000000000000000000000100010007CAE
:10566000001000100000000000000000000000001A
:1056700000000000000000000010001000100000FA
:1056800000000000000000000038000000000000E2
:10569000000000000000000000000000000000000A
:1056A00000100000000000080008001000100010AA
:1056B00000100020002000000000003800440044DA
:1056C0000054004400440044003800000000001072
:1056D00000300050001000100010001000100000FA
:1056E00000000038004400440004000800100020BE
:1056F000007C000000000038004400040018000492
:1057000000040044003800000000000800180028D1
:1057100000280048007C0008000800000000007C11
:1057200000400040007800040004004400380000FD
:105730000000003800440040007800440044004469
:10574000003800000000007C000400080010001079
:105750000020002000200000000000380044004429
:1057600000380044004400440038000000000038C5
:10577000004400440044003C0004004400380000A1
:105780000000000000000010000000000000000009
:1057900000100000000000000000000000100000E9
:1057A0000000000000100010001000000000000CBD
:1057B000003000400030000C00000000000000003D
:1057C00000000000007C0000007C000000000000E1
:1057D00000000000000000600018000400180060D5
:1057E0000000000000000038004400040008001021
:1057F0000010000000100000000000380044004CC1
:105800000054005C00400040003800000000001020
:105810000028002800280028007C004400440000E4
:105820000000007800440044007800440044004434
:1058300000780000000000380044004000400040B4
:1058400000400044003800000000007000480044A0
:105850000044004400440048007000000000007C48
:1058600000400040007C004000400040007C000000
:105870000000007C004000400078004000400040F4
:105880000040000000000038004400400040005C80
:10589000004400440038000000000044004400447C
:1058A000007C004400440044004400000000003834
:1058B0000010001000100010001000100038000050
:1058C000000000040004000400040004000400447C
:1058D0000038000000000044004800500060005004
:1058E0000048004800440000000000400040004024
:1058F0000040004000400040007C000000000044E8
:10590000006C006C0054004400440044004400005B
:10591000000000440064006400540054004C004C3B
:1059200000440000000000380044004400440044EB
:1059300000440044003800000000007800440044A7
:1059400000440078004000400040000000000038A3
:105950000044004400440044004400540038000463
:1059600000000078004400440044007800480048EB
:1059700000440000000000380044004000300008EF
:1059800000040044003800000000007C00100010FB
:105990000010001000100010001000000000004473
:1059A0000044004400440044004400440038000027
:1059B0000000004400440044002800280028001093
:1059C0000010000000000044004400540054005443
:1059D000006C002800280000000000440028002877
:1059E00000100010002800280044000000000044BF
:1059F00000440028002800100010001000100000D3
:105A00000000007C0004000800100010002000408E
:105A1000007C0000000000180010001000100010B2
:105A200000100010001000100018002000200010CE
:105A300000100010001000080008000000000030F6
:105A400000100010001000100010001000100010D6
:105A50000030001000280028004400000000000072
:105A60000000000000000000000000000000000036
:105A7000000000000000000000FE002000100000F8
:105A80000000000000000000000000000000000016
:105A9000000000380044003C0044004C003400008A
:105AA00000000040004000580064004400440064CE
:105AB00000580000000000000000003800440040D2
:105AC00000400044003800000000000400040034DE
:105AD000004C00440044004C003400000000000072
